:06000000020053116C32F6
:01000B0032C2
:0100130032BA
:01001B0032B2
:0100230032AA
:1000300075F040A9F07755097766A9F0E9E709E777
:100040002275880075890075D00075A80022D2AF8E
:10005000D2A822114111D17940770079417700115E
:100060004E116331307D0A3163DDFA22C0D0C0E029
:1000700011C77940E704F7D2B7C2B711BDD0E0D0BD
:10008000D022FF7E047AFA7B92000000000000DBA1
:10009000F8DAF4DEF0DFEC22FF7E920000000000D0
:1000A00000DEF8DFF422FF7E01DEFEDFFA22FF7EB3
:1000B00002000000DEFBDFF72275900022C2D3C2EF
:1000C000D422D2D3C2D422C2D3D2D422D2D3D2D435
:1000D0002275B001740C11AED2B47402119878E29A
:1000E000311C312178EE311C312178A4311C3121B1
:1000F00078A9311C312178C0311C312178A1311C03
:10010000312178AF311C312111B92289B088907426
:100110002811A6C2B074A011A6D2B022791D310B4D
:10012000227915310B22793D310B227935310B22A1
:1001300078E2311C7C0474049CFAEA44B8F8311C5F
:100140007813311C78007B3D3126DBFCEA44B8F89B
:1001500031217800312178007B3D312BDBFCDCD66E
:1001600011B922317331A3227940E704B43E0274FD
:1001700000F72278E2311C78B8311C7813311C79F1
:1001800040E79006007A3EC0E0D0E0B41002740070
:10019000C0E093F83126D0E004C0E0DAECD0E0799A
:1001A00040F72278E2311C78BB311C7813311C797E
:1001B00041E79006207A3EC0E0D0E0B4100274001F
:1001C000C0E093F83126D0E004C0E0DAECD0E0796A
:1001D00041F7227A08740093F83126A3DAF7227ADD
:1001E00008740093F8312BA3DAF722FA740093F81D
:0601F0003126A3DAF7221C
:10060000080808080808080810101010101010102A
:10062000CF497949CF497949CF497949CF49794962
:1007000000FFFF0303FFFF0000FFFF700EFFFF006D
:1007100000FFFFC3C3E7E70000CFEF1D1DFFFF0091
:010720004098
:00000001FF
