:0A000000020042C0D01185D0D032BA
:01000B0032C2
:0100130032BA
:01001B0032B2
:0100230032AA
:1000300075880075890075D00075A80022D2AFD2EE
:10004000A822113011E4114C113D117C7940770048
:1000500079417700794277007943770079447700D6
:1000600079457700794677007947770079487703B3
:100070007949770022114C3147318F223147318F36
:10008000317680FC22C0E0C2A811D579467401F710
:1000900011D0D0E022FF7E047DFA7C9200000000A7
:1000A0000000DCF8DDF4DEF0DFEC22FF7E920000E1
:1000B00000000000DEF8DFF422FF7E01DEFEDFFA42
:1000C00022FF7E02000000DEFBDFF7227590002297
:1000D000C2D3C2D422D2D3C2D422C2D3D2D422D247
:1000E000D3D2D42275B001740C11C1D2B4740211F0
:1000F000AB78E23133313878EE3133313878A431AE
:1001000033313878A93133313878C03133313878E8
:10011000A13133313878AF3133313811CC2289B045
:100120008890742811B9C2B074A011B9D2B074C843
:1001300011B922791D311E227915311E22793D31E6
:100140001E227935311E227C0474049CFAEA44B8DC
:10015000F831337813313378007B3D313DDBFCEAF5
:1001600044B8F831387813313878007B3D3142DBC0
:10017000FCDCD611CC2231B49007A17BB87C413194
:10018000B59007B17BBB7C4231B531E8519F227BF2
:10019000B831987BBB31982278E23138EBF83138AE
:1001A000781331389007C17A3D7B00EB93F83142E8
:1001B0000BDAF8222278E23133EBF831337813315D
:1001C00033ECF9E77A3DFBBB0F027B00EB93F83190
:1001D0003D0BDAF3ECF9EBF722B800067E00227E45
:1001E0000122BD01FA7E002278E23133EB78BA3188
:1001F00033781331339006757944E7B4F002740014
:10020000FCE5822CF58230D70205837946E7FD02B2
:1002100002157136227A3D7B00EB93F8BB000C315E
:10022000D9BE00EE11DFE811D048F8BB010C31D97E
:10023000BE00DF11DFE911D048F8BB020C31D9BE96
:1002400000D011DFEA11D048F8BB030C31D9BE0051
:10025000C111DFEB11D048F8BB040C31D9BE00B29C
:1002600011DFEC11D048F8BB050C31D9BE00A31149
:10027000DFED11D048F8BB060C31D9BE009411DF78
:10028000EE11D048F8BB070C31D9BE008511DFEF65
:1002900011D048F8313D0BDA8079440CECF7227824
:1002A000E2313378B93133781331337945E7FD0DD5
:1002B0007946E7B400057D000202EBBD18087D0019
:1002C00079467700D2A8ED75F008A4FC900500E50A
:1002D000822CF5827A087B00EB93F8313D0BDAF83B
:1002E000900400E5822CF58202030D7948E714F7AB
:1002F000B4000C7403F77947E76401F7020302794D
:1003000047E775F008A49003F02582F58211DF74A9
:100310000093F8740193F9740293FA740393FB74D5
:100320000493FC740593FD740693FE740793FF1108
:10033000D07945EDF722C2A8314778E2313378BA57
:100340003133781331337B1D7800313DDBFA7C008B
:100350007B1F9003A0EC93F8313D0CDBF578E23184
:100360003878BA3138781331387B1D9003A0EC937C
:0F037000F831420CDBF5743C11951175D2A822BF
:1003A0007E7E02027E7E007E7E42427E7E000202D1
:1003B0007E7E0202007E7E12121E1E00707C0A0AE1
:1003C0007C70000E0E087E7E007E7E4A42007E7E9D
:0C03D00008087E7E007E7E42427E7E0099
:1003F00000444A3E0F1E24C000203EEF3E0402008F
:100400000004C23C1F3CC2040042221E0F1E2242B6
:1004100000040202010102040000000000000000CC
:1004200000000000000000000000000000000000CC
:1004300000000000000000000000000000000000BC
:1004400000000000000000000000000000000000AC
:10045000000000000000000000000000000000009C
:10046000000000000000000000000000000000008C
:10047000000000000000000000000000000000007C
:10048000000000000000000000000000000000006C
:10049000000000000000000000000000000000005C
:1004A000000000000000000000040202010102043C
:1004B0000042221E0F1E22420004C23C1F3CC20406
:10050000000000000000000000000000800000006B
:10051000002020E0F8E020203022241C1F3422306C
:100520003022241C1F3422303022241C1F3422305D
:100530003022241C1F3422303022241C1F3422304D
:100540003022241C1F3422303022241C1F3422303D
:100550003022241C1F3422303022241C1F3422302D
:100560003022241C1F3422303022241C1F3422301D
:100570003022241C1F3422303022241C1F3422300D
:100580003022241C1F3422303022241C1F342230FD
:100590003022241C1F3422303022241C1F342230ED
:1005A0003022241C1F342230002020E0F8E02020DC
:1005B00000000000800000000000000000000000BB
:100675000000000000000000000000000000000075
:100685000000000000000000000000000000000065
:100695000000000000000000000000000000000055
:1006A5000000F8F8FCFFFFFCF8F80000000000006F
:1006B5000000000000000000000000000000000035
:1006C50000000000000000000000E0F0B8B8B8B875
:1006D500F0E0000000000000000000000000000045
:1006E5000000000000000000000000000000000005
:1006F500000000000000000000000000000000E015
:10070500E0E0E0E0E0E0E0000000000000000000C4
:1007150000000000000000000000E0F0B8BCB8B820
:10072500F0E00000000000000000000000000000F4
:10073500000000000000000000000000F8E0F8E004
:10074500F8E0F8E0000000000000000000000000F4
:100755000000000000000000988888FCFC8888984C
:100765000000000000000000000000000000000084
:100775000000000000000000000000000000000074
:100785000000000000000000000000000000000064
:100795000000F8F8FCFFFFFCF8F80000081C362202
:1007A5002020380C040E1A1210180808CFC9F9C9F0
:1007B500CFC9F9C9CFC9F9C9CFC9F9C9FFFF55AA29
:1007C50055AA55AA55AA55AA55AA55AA55AA55AA2C
:1007D50055AA55AA55AA55AA55AA55AA55AA55AA1C
:1007E50055AA55AA55AA55AA55AA55AA55AA55AA0C
:0A07F50055AA55AA55AA55FFFF406A
:00000001FF
