:0A000000020042C0D01176D0D032C9
:01000B0032C2
:0100130032BA
:01001B0032B2
:0100230032AA
:1000300075880075890075D00075A80022D2AFD2EE
:10004000A822113011D5114C113D116D7940770066
:1000500079417700794277007943770079447700D6
:100060007945770079467700794777002231343136
:100070007C316380FC22C0E0C2A811C679467401BD
:10008000F711C1D0E022FF7E047DFA7C92000000CF
:10009000000000DCF8DDF4DEF0DFEC22FF7E9200F1
:1000A0000000000000DEF8DFF422FF7E01DEFEDF4C
:1000B000FA22FF7E02000000DEFBDFF722759000CF
:1000C00022C2D3C2D422D2D3C2D422C2D3D2D42207
:1000D000D2D3D2D42275B001740C11B2D2B474024E
:1000E000119C78E23120312578EE3120312578A439
:1000F0003120312578A93120312578C031203125B2
:1001000078A13120312578AF3120312511BD2289E8
:10011000B08890742811AAC2B074A011AAD2B022DB
:10012000791D310F227915310F22793D310F227956
:1001300035310F227C0474049CFAEA44B8F831206B
:100140007813312078007B3D312ADBFCEA44B8F893
:1001500031257813312578007B3D312FDBFCDCD64F
:1001600011BD2231A19007A17BB87C4131A290073B
:10017000B17BBB7C4231A231C6514B227BB8318569
:100180007BBB31852278E23125EBF83125781331BC
:10019000259007C17A3D7B00EB93F8312F0BDAF8FD
:1001A000222278E23120EBF8312078133120ECF96B
:1001B000E77A3DFBBB0F027B00EB93F8312A0BDAA9
:1001C000F3ECF9EBF72278E23120EB78BA312078C2
:1001D0001331209006757944E7B4F0027400FCE511
:1001E000822CF58230D70205837A3D7B00EB93F8B1
:1001F000BB000711D0E811C148F8BB010711D0E9D5
:1002000011C148F8BB020711D0EA11C148F8BB037D
:100210000711D0EB11C148F8BB040711D0EC11C194
:1002200048F8BB050711D0ED11C148F8BB0607110E
:10023000D0EE11C148F8BB070711D0EF11C148F843
:10024000312A0BDAA879440CECF72278E2312078D5
:10025000B93120781331207945E7FD0D7946E7B4AF
:1002600000027D00BD18087D0079467700D2A8ED18
:1002700075F008A4FC900500E5822CF5827A087BD5
:1002800000EB93F8312A0BDAF8900400E5822CF5A4
:100290008211D0740093F8740193F9740293FA7484
:1002A0000393FB740493FC740593FD740693FE742E
:0A02B0000793FF11C17945EDF72215
:100400000004C23C1F3CC2040042221E0F1E2242B6
:1004100000040202010102040000000000000000CC
:1004200000000000000000000000000000000000CC
:1004300000000000000000000000000000000000BC
:1004400000000000000000000000000000000000AC
:10045000000000000000000000000000000000009C
:10046000000000000000000000000000000000008C
:10047000000000000000000000000000000000007C
:10048000000000000000000000000000000000006C
:10049000000000000000000000000000000000005C
:1004A000000000000000000000040202010102043C
:1004B0000042221E0F1E22420004C23C1F3CC20406
:10050000000000000000000000000000800000006B
:10051000002020E0F8E020203022241C1F3422306C
:100520003022241C1F3422303022241C1F3422305D
:100530003022241C1F3422303022241C1F3422304D
:100540003022241C1F3422303022241C1F3422303D
:100550003022241C1F3422303022241C1F3422302D
:100560003022241C1F3422303022241C1F3422301D
:100570003022241C1F3422303022241C1F3422300D
:100580003022241C1F3422303022241C1F342230FD
:100590003022241C1F3422303022241C1F342230ED
:1005A0003022241C1F342230002020E0F8E02020DC
:1005B00000000000800000000000000000000000BB
:100675000000000000000000000000000000000075
:100685000000000000000000000000000000000065
:100695000000000000000000000000000000000055
:1006A5000000F8F8FCFFFFFCF8F80000000000006F
:1006B5000000000000000000000000000000000035
:1006C50000000000000000000000E0F0B8B8B8B875
:1006D500F0E0000000000000000000000000000045
:1006E5000000000000000000000000000000000005
:1006F500000000000000000000000000000000E015
:10070500E0E0E0E0E0E0E0000000000000000000C4
:1007150000000000000000000000E0F0B8BCB8B820
:10072500F0E00000000000000000000000000000F4
:10073500000000000000000000000000F8E0F8E004
:10074500F8E0F8E0000000000000000000000000F4
:100755000000000000000000988888FCFC8888984C
:100765000000000000000000000000000000000084
:100775000000000000000000000000000000000074
:100785000000000000000000000000000000000064
:100795000000F8F8FCFFFFFCF8F80000081C362202
:1007A5002020380C040E1A1210180808CFC9F9C9F0
:1007B500CFC9F9C9CFC9F9C9CFC9F9C9FFFF55AA29
:1007C50055AA55AA55AA55AA55AA55AA55AA55AA2C
:1007D50055AA55AA55AA55AA55AA55AA55AA55AA1C
:1007E50055AA55AA55AA55AA55AA55AA55AA55AA0C
:0A07F50055AA55AA55AA55FFFF406A
:00000001FF
