:06000000020053117632EC
:01000B0032C2
:0100130032BA
:01001B0032B2
:0100230032AA
:1000300075F040A9F07755097766A9F0E9E709E777
:100040002275880075890075D00075A80022D2AF8E
:10005000D2A822114111D6794077007941770079F1
:100060004277007943770079447700114E116F3160
:10007000357D0ADDFC22C0D0C0E011CCD2B7C2B7BA
:1000800011C2D0E0D0D022FF7E047DFA7C92000025
:1000900000000000DCF8DDF4DEF0DFEC22FF7E92F1
:1000A000000000000000DEF8DFF422FF7E01DEFE2B
:1000B000DFFA22FF7E02000000DEFBDFF7227590F0
:1000C0000022C2D3C2D422D2D3C2D422C2D3D2D429
:1000D00022D2D3D2D42275B001740C11B3D2B4742D
:1000E00002119D78E23121312678EE3121312678D6
:1000F000A43121312678A93121312678C03121312E
:100100002678A13121312678AF3121312611BE2246
:1001100089B08890742811ABC2B074A011ABD2B072
:1001200022791D3110227915311022793D311022AA
:10013000793531102278E231217C0474049CFAEA8A
:1001400044B8F831217813312178557B3D312BDBD0
:10015000FCEA44B8F831267813312678AA7B3D3181
:1001600030DBFCDCD611BE22319E9006007BBB7CCE
:100170004031AA9006107BB87C4131AA2278E23146
:100180002678B83126781331269006207A3D7B00F8
:10019000BB07027B00EB93F831300BDAF3222279B4
:1001A00043E704B43E027400F72278E23121EBF811
:1001B000312178133121ECF9E77A3DFBBB0F027B4B
:1001C00000EB93F8312B0BDAF3ECF9EBF72278E242
:1001D000312178B83121781331217940E790060038
:1001E0007A3DFBBB0F027B00EB93F8312B0BDAF36C
:1001F000EB7940F7227A08740093F8312BA3DAF7F1
:0102000022DB
:10060000CF497949CF497949CF497949CF49794982
:10061000081C36222020380C040E1A121018080864
:10062000FFE7C38181C3E7FF000000000000000076
:1007000000FFFF0303FFFF0000FFFF700EFFFF006D
:1007100000FFFFC3C3E7E70000CFEF1D1DFFFF0091
:010720004098
:00000001FF
