:0A000000020042C0D01185D0D032BA
:01000B0032C2
:0100130032BA
:01001B0032B2
:0100230032AA
:1000300075880075890075D00075A80022D2AFD2EE
:10004000A822113011E4114C113D117C7940770048
:1000500079417700794277007943770079447700D6
:1000600079457700794677007947770079487703B3
:100070007949770022114C3141318922314131894E
:10008000317080FC22C0E0C2A811D579467401F716
:1000900011D0D0E022FF7E047DFA7C9200000000A7
:1000A0000000DCF8DDF4DEF0DFEC22FF7E920000E1
:1000B00000000000DEF8DFF422FF7E01DEFEDFFA42
:1000C00022FF7E02000000DEFBDFF7227590002297
:1000D000C2D3C2D422D2D3C2D422C2D3D2D422D247
:1000E000D3D2D42275B001740C11C1D2B4740211F0
:1000F000AB78E2312D313278EE312D313278A431C6
:100100002D313278A9312D313278C0312D3132780C
:10011000A1312D78A0313278AF312D313211CC227E
:1001200089B08890C2B074A011B9D2B022791D31C3
:1001300020227915312022793D3120227935312054
:10014000227C0474049CFAEA44B8F8312D78133107
:100150002D78007B3D3137DBFCEA44B8F83132784A
:1001600013313278007B3D313CDBFCDCD611CC22F4
:1001700031AE9007A17BB87C4131AF9007B17BBB1A
:100180007C4231AF31E25199227BB831927BBB3155
:10019000922278E23132EBF8313278133132900723
:1001A000C17A3D7B00EB93F8313C0BDAF8222278E0
:1001B000E2312DEBF8312D7813312DECF9E77A3D52
:1001C000FBBB0F027B00EB93F831370BDAF3ECF952
:1001D000EBF722B800067E00227E0122BD01FA7EE6
:1001E000002278E2312DEB78BA312D7813312D9041
:1001F00006757944E7B4F0027400FCE5822CF582C0
:1002000030D70205837946E7FD02020F7130227A6A
:100210003D7B00EB93F8BB000C31D3BE00EE11DF49
:10022000E811D048F8BB010C31D3BE00DF11DFE983
:1002300011D048F8BB020C31D3BE00D011DFEA1157
:10024000D048F8BB030C31D3BE00C111DFEB11D095
:1002500048F8BB040C31D3BE00B211DFEC11D0481A
:10026000F8BB050C31D3BE00A311DFED11D048F867
:10027000BB060C31D3BE009411DFEE11D048F8BBA1
:10028000070C31D3BE008511DFEF11D048F83137AC
:100290000BDA8079440CECF72278E2312D78B93111
:1002A0002D7813312D7945E7FD0D7946E7B400052A
:1002B0007D000202E5BD18087D0079467700D2A8CE
:1002C000ED75F008A4FC900500E5822CF5827A0813
:1002D0007B00EB93F831370BDAF8900400E5822CC1
:1002E000F5820203077948E714F7B4000C7403F7AA
:1002F0007947E76401F70202FC7947E775F008A443
:100300009003F02582F58211DF740093F874019355
:10031000F9740293FA740393FB740493FC740593C9
:10032000FD740693FE740793FF11D07945EDF72213
:10033000C2A8314178E2312D78BA312D7813312DB0
:100340007B1D78003137DBFA7C007B1F9003A0EC2B
:1003500093F831370CDBF578BA3132781331327BD0
:100360001D9003A0EC93F8313C0CDBF5740A119559
:050370001175D2A82266
:1003A0007E7E02027E7E007E7E42427E7E000202D1
:1003B0007E7E0202007E7E12121E1E00707C0A0AE1
:1003C0007C70000E0E087E7E007E7E4A42007E7E9D
:0C03D00008087E7E007E7E42427E7E0099
:1003F00000444A3E0F1E24C000203EEF3E0402008F
:100400000004C23C1F3CC2040042221E0F1E2242B6
:1004100000040202010102040000000000000000CC
:1004200000000000000000000000000000000000CC
:1004300000000000000000000000000000000000BC
:1004400000000000000000000000000000000000AC
:10045000000000000000000000000000000000009C
:10046000000000000000000000000000000000008C
:10047000000000000000000000000000000000007C
:10048000000000000000000000000000000000006C
:10049000000000000000000000000000000000005C
:1004A000000000000000000000040202010102043C
:1004B0000042221E0F1E22420004C23C1F3CC20406
:10050000000000000000000000000000800000006B
:10051000002020E0F8E020203022241C1F3422306C
:100520003022241C1F3422303022241C1F3422305D
:100530003022241C1F3422303022241C1F3422304D
:100540003022241C1F3422303022241C1F3422303D
:100550003022241C1F3422303022241C1F3422302D
:100560003022241C1F3422303022241C1F3422301D
:100570003022241C1F3422303022241C1F3422300D
:100580003022241C1F3422303022241C1F342230FD
:100590003022241C1F3422303022241C1F342230ED
:1005A0003022241C1F342230002020E0F8E02020DC
:1005B00000000000800000000000000000000000BB
:100675000000000000000000000000000000000075
:100685000000000000000000000000000000000065
:100695000000000000000000000000000000000055
:1006A5000000F8F8FCFFFFFCF8F80000000000006F
:1006B5000000000000000000000000000000000035
:1006C50000000000000000000000E0F0B8B8B8B875
:1006D500F0E0000000000000000000000000000045
:1006E5000000000000000000000000000000000005
:1006F500000000000000000000000000000000E015
:10070500E0E0E0E0E0E0E0000000000000000000C4
:1007150000000000000000000000E0F0B8BCB8B820
:10072500F0E00000000000000000000000000000F4
:10073500000000000000000000000000F8E0F8E004
:10074500F8E0F8E0000000000000000000000000F4
:100755000000000000000000988888FCFC8888984C
:100765000000000000000000000000000000000084
:100775000000000000000000000000000000000074
:100785000000000000000000000000000000000064
:100795000000F8F8FCFFFFFCF8F80000081C362202
:1007A5002020380C040E1A1210180808CFC9F9C9F0
:1007B500CFC9F9C9CFC9F9C9CFC9F9C9FFFF55AA29
:1007C50055AA55AA55AA55AA55AA55AA55AA55AA2C
:1007D50055AA55AA55AA55AA55AA55AA55AA55AA1C
:1007E50055AA55AA55AA55AA55AA55AA55AA55AA0C
:0A07F50055AA55AA55AA55FFFF406A
:00000001FF
