:06000000020053117A32E8
:01000B0032C2
:0100130032BA
:01001B0032B2
:0100230032AA
:1000300075F040A9F07755097766A9F0E9E709E777
:100040002275880075890075D00075A80022D2AF8E
:10005000D2A822114111DA794077007941770079ED
:100060004277007943770079447700114E116F3160
:100070003931817D0A316CDDFA22C0D0C0E011D067
:10008000D2B7C2B711C6D0E0D0D022FF7E047DFA2D
:100090007C92000000000000DCF8DDF4DEF0DFEC14
:1000A00022FF7E92000000000000DEF8DFF422FF55
:1000B0007E01DEFEDFFA22FF7E02000000DEFBDFB3
:1000C000F72275900022C2D3C2D422D2D3C2D42246
:1000D000C2D3D2D422D2D3D2D42275B001740C119F
:1000E000B7D2B4740211A178E23125312A78EE3109
:1000F00025312A78A43125312A78A93125312A7869
:10010000C03125312A78A13125312A78AF31253106
:100110002A11C22289B08890742811AFC2B074A08D
:1001200011AFD2B022791D31142279153114227900
:100130003D311422793531142278E231257C047462
:10014000049CFAEA44B8F831257813312578007B0D
:100150003D312FDBFCEA44B8F8312A7813312A7894
:10016000007B3D3134DBFCDCD611C22231A290068B
:10017000007BB87C4031AE9006107BBB7C4131AE39
:100180002278E2312A78B8312A7813312A90062071
:100190007A3D7B00BB07027B00EB93F831340BDA2E
:1001A000F322227943E704B43E027400F72278E296
:1001B0003125EBF8312578133125ECF9E77A3DFB51
:1001C000BB0F027B00EB93F8312F0BDAF3ECF9EB6A
:1001D000F72278E2312578B8312578133125794036
:1001E000E79006007A3DFBBB0F027B00EB93F831F2
:1001F0002F0BDAF3EB7940F7227A08740093F83189
:050200002FA3DAF72234
:10060000081C36222020380C040E1A121018080874
:10061000CFC9F9C9CFC9F9C9CFC9F9C9CFC9F9C972
:10062000FFE7C38181C3E7FF000000000000000076
:1007000000FFFF0303FFFF0000FFFF700EFFFF006D
:1007100000FFFFC3C3E7E70000CFEF1D1DFFFF0091
:010720004098
:00000001FF
