:0A000000020042C0D0117ED0D032C1
:01000B0032C2
:0100130032BA
:01001B0032B2
:0100230032AA
:1000300075880075890075D00075A80022D2AFD2EE
:10004000A822113011DD114C113D11757940770056
:1000500079417700794277007943770079447700D6
:1000600079457700794677007947770079487703B3
:100070007949770022313C3184316B80FC22C0E029
:10008000C2A811CE79467401F711C9D0E022FF7ED3
:10009000047DFA7C92000000000000DCF8DDF4DE54
:1000A000F0DFEC22FF7E92000000000000DEF8DFAF
:1000B000F422FF7E01DEFEDFFA22FF7E0200000056
:1000C000DEFBDFF72275900022C2D3C2D422D2D346
:1000D000C2D422C2D3D2D422D2D3D2D42275B00178
:1000E000740C11BAD2B4740211A478E23128312D03
:1000F00078EE3128312D78A43128312D78A9312896
:10010000312D78C03128312D78A13128312D78AFAB
:100110003128312D11C52289B08890742811B2C2BE
:10012000B074A011B2D2B022791D311722791531E5
:100130001722793D31172279353117227C04740456
:100140009CFAEA44B8F831287813312878007B3DCE
:100150003132DBFCEA44B8F8312D7813312D7800C8
:100160007B3D3137DBFCDCD611C52231A99007A1DC
:100170007BB87C4131AA9007B17BBB7C4231AA316C
:10018000CE5153227BB8318D7BBB318D2278E23149
:100190002DEBF8312D7813312D9007C17A3D7B007E
:1001A000EB93F831370BDAF8222278E23128EBF8BA
:1001B000312878133128ECF9E77A3DFBBB0F027B3D
:1001C00000EB93F831320BDAF3ECF9EBF72278E23B
:1001D0003128EB78BA3128781331289006757944A4
:1001E000E7B4F0027400FCE5822CF58230D70205FA
:1001F000837A3D7B00EB93F8BB000711D8E811C967
:1002000048F8BB010711D8E911C948F8BB0207112A
:10021000D8EA11C948F8BB030711D8EB11C948F84F
:10022000BB040711D8EC11C948F8BB050711D8ED7C
:1002300011C948F8BB060711D8EE11C948F8BB0729
:100240000711D8EF11C948F831320BDAA879440CFC
:10025000ECF72278E2312878B931287813312879FF
:1002600045E7FD0D7946E7B400057D0002029FBD1C
:1002700018087D0079467700D2A8ED75F008A4FC37
:10028000900500E5822CF5827A087B00EB93F8312B
:10029000320BDAF8900400E5822CF5820202C17973
:1002A00048E714F7B4000C7403F77947E76401F7E3
:1002B0000202B67947E775F008A49003F02582F5AD
:1002C0008211D8740093F8740193F9740293FA744C
:1002D0000393FB740493FC740593FD740693FE74FE
:0A02E0000793FF11C97945EDF722DD
:1003F00000444A3E0F1E24C000203EEF3E0402008F
:100400000004C23C1F3CC2040042221E0F1E2242B6
:1004100000040202010102040000000000000000CC
:1004200000000000000000000000000000000000CC
:1004300000000000000000000000000000000000BC
:1004400000000000000000000000000000000000AC
:10045000000000000000000000000000000000009C
:10046000000000000000000000000000000000008C
:10047000000000000000000000000000000000007C
:10048000000000000000000000000000000000006C
:10049000000000000000000000000000000000005C
:1004A000000000000000000000040202010102043C
:1004B0000042221E0F1E22420004C23C1F3CC20406
:10050000000000000000000000000000800000006B
:10051000002020E0F8E020203022241C1F3422306C
:100520003022241C1F3422303022241C1F3422305D
:100530003022241C1F3422303022241C1F3422304D
:100540003022241C1F3422303022241C1F3422303D
:100550003022241C1F3422303022241C1F3422302D
:100560003022241C1F3422303022241C1F3422301D
:100570003022241C1F3422303022241C1F3422300D
:100580003022241C1F3422303022241C1F342230FD
:100590003022241C1F3422303022241C1F342230ED
:1005A0003022241C1F342230002020E0F8E02020DC
:1005B00000000000800000000000000000000000BB
:100675000000000000000000000000000000000075
:100685000000000000000000000000000000000065
:100695000000000000000000000000000000000055
:1006A5000000F8F8FCFFFFFCF8F80000000000006F
:1006B5000000000000000000000000000000000035
:1006C50000000000000000000000E0F0B8B8B8B875
:1006D500F0E0000000000000000000000000000045
:1006E5000000000000000000000000000000000005
:1006F500000000000000000000000000000000E015
:10070500E0E0E0E0E0E0E0000000000000000000C4
:1007150000000000000000000000E0F0B8BCB8B820
:10072500F0E00000000000000000000000000000F4
:10073500000000000000000000000000F8E0F8E004
:10074500F8E0F8E0000000000000000000000000F4
:100755000000000000000000988888FCFC8888984C
:100765000000000000000000000000000000000084
:100775000000000000000000000000000000000074
:100785000000000000000000000000000000000064
:100795000000F8F8FCFFFFFCF8F80000081C362202
:1007A5002020380C040E1A1210180808CFC9F9C9F0
:1007B500CFC9F9C9CFC9F9C9CFC9F9C9FFFF55AA29
:1007C50055AA55AA55AA55AA55AA55AA55AA55AA2C
:1007D50055AA55AA55AA55AA55AA55AA55AA55AA1C
:1007E50055AA55AA55AA55AA55AA55AA55AA55AA0C
:0A07F50055AA55AA55AA55FFFF406A
:00000001FF
