:06000000020053116832FA
:01000B0032C2
:0100130032BA
:01001B0032B2
:0100230032AA
:1000300075F040A9F07755097766A9F0E9E709E777
:100040002275880075890075D00075A80022D2AF8E
:10005000D2A822114111CD79407700114E115F31A4
:100060002C7D0A315FDDFA22C0D0C0E011C3794097
:10007000E704F7D2B7C2B711B9D0E0D0D022FF7EE3
:10008000047AFA7B92000000000000DBF8DAF4DE6C
:10009000F0DFEC22FF7E92000000000000DEF8DFBF
:1000A000F422FF7E01DEFEDFFA22FF7E0200000066
:1000B000DEFBDFF72275900022C2D3C2D422D2D356
:1000C000C2D422C2D3D2D422D2D3D2D42275B00188
:1000D000740C11AAD2B47402119478E23118311D53
:1000E00078EE3118311D78A43118311D78A93118F6
:1000F000311D78C03118311D78A13118311D78AF0C
:100100003118311D11B52289B08890742811A2C20E
:10011000B074A011A2D2B022791D31072279153115
:100120000722793D310722793531072278E23118EB
:100130007C0474049CFAEA44B8F831187813311836
:1001400078007B3D3122DBFCEA44B8F8311D7800B1
:10015000311D78007B3D3127DBFCDCD611B52278E0
:10016000E231187A00EA44B8F8311878133118905F
:100170000600317E9007007B03317EDBFC227A088B
:10018000740093F83122A3DAF7227A08740093F806
:060190003127A3DAF7227B
:08060000FFBFDBFFB9DD7FFF46
:1007000000FFFF0303FFFF0000FFFF700EFFFF006D
:1007100000FFFFC3C3E7E70000CFEF1D1DFFFF0091
:010720004098
:00000001FF
