:06000000020053117832EA
:01000B0032C2
:0100130032BA
:01001B0032B2
:0100230032AA
:1000300075F040A9F07755097766A9F0E9E709E777
:100040002275880075890075D00075A80022D2AF8E
:10005000D2A822114111D8794077007941770079EF
:100060004277007943770079447700114E116F3160
:10007000377D0A316ADDFA22C0D0C0E011CED2B796
:10008000C2B711C4D0E0D0D022FF7E047DFA7C92AA
:10009000000000000000DCF8DDF4DEF0DFEC22FF01
:1000A0007E92000000000000DEF8DFF422FF7E01F7
:1000B000DEFEDFFA22FF7E02000000DEFBDFF72219
:1000C00075900022C2D3C2D422D2D3C2D422C2D3CA
:1000D000D2D422D2D3D2D42275B001740C11B5D2AD
:1000E000B47402119F78E23123312878EE31233144
:1000F0002878A43123312878A93123312878C031D8
:1001000023312878A13123312878AF3123312811C8
:10011000C02289B08890742811ADC2B074A011AD0E
:10012000D2B022791D3112227915311222793D3156
:100130001222793531122278E231237C0474049C36
:10014000FAEA44B8F831237813312378007B3D3143
:100150002DDBFCEA44B8F831287813312878007B8D
:100160003D3132DBFCDCD611C02231A09006007B91
:10017000BB7C4031AC9006107BB87C4131AC22781E
:10018000E2312878B83128781331289006207A3D5A
:100190007B00BB07027B00EB93F831320BDAF322D2
:1001A000227943E704B43E027400F72278E2312357
:1001B000EBF8312378133123ECF9E77A3DFBBB0FE1
:1001C000027B00EB93F8312D0BDAF3ECF9EBF7221D
:1001D00078E2312378B83123781331237940E790DE
:1001E00006007A3DFBBB0F027B00EB93F8312D0B31
:1001F000DAF3EB7940F7227A08740093F8312DA3F3
:03020000DAF72208
:10060000CF497949CF497949CF497949CF49794982
:10061000081C36222020380C040E1A121018080864
:10062000FFE7C38181C3E7FF000000000000000076
:1007000000FFFF0303FFFF0000FFFF700EFFFF006D
:1007100000FFFFC3C3E7E70000CFEF1D1DFFFF0091
:010720004098
:00000001FF
