:06000000020042117632FD
:01000B0032C2
:0100130032BA
:01001B0032B2
:0100230032AA
:1000300075880075890075D00075A80022D2AFD2EE
:10004000A822113011D7114C113D116D7940770064
:1000500079417700794277007943770079447700D6
:100060007945770079467700794777002231363134
:100070007E316580FC22C0D0C0E011CD794674018C
:10008000F711C3D0E0D0D022FF7E047DFA7C92002D
:100090000000000000DCF8DDF4DEF0DFEC22FF7E83
:1000A00092000000000000DEF8DFF422FF7E01DE97
:1000B000FEDFFA22FF7E02000000DEFBDFF7227582
:1000C000900022C2D3C2D422D2D3C2D422C2D3D26D
:1000D000D422D2D3D2D42275B001740C11B4D2B4CC
:1000E0007402119E78E23122312778EE31223127D5
:1000F00078A43122312778A93122312778C03122E2
:10010000312778A13122312778AF3122312711BF31
:100110002289B08890742811ACC2B074A011ACD2FE
:10012000B022791D3111227915311122793D311119
:100130002279353111227C0474049CFAEA44B8F81F
:1001400031227813312278007B3D312CDBFCEA44EC
:10015000B8F831277813312778007B3D3131DBFC4B
:10016000DCD611BF2231A39007A17BB87C4131A41A
:100170009007B17BBB7C4231A431C831FD227BB8F2
:1001800031877BBB31872278E23127EBF831277842
:100190001331279007C17A3D7B00EB93F831310B87
:1001A000DAF8222278E23122EBF831227813312278
:1001B000ECF9E77A3DFBBB0F027B00EB93F8312CA7
:1001C0000BDAF3ECF9EBF72278E23122EB78BA3173
:1001D00022781331229006757944E7B4F002740056
:1001E000FCE5822CF58230D70205837A3D7B00EB5B
:1001F00093F8312C0BDAF879440CECF72278E231E1
:100200002278B931227813312290062D7A087B00AA
:09021000EB93F8312C0BDAF82213
:1005E5000004C23C1F3CC2040004C23C1F3CC204C0
:1005F5000004C23C1F3CC2040004C23C1F3CC204B0
:100605000004C23C1F3CC2040004C23C1F3CC2049F
:100615000004C23C1F3CC2040004C23C1F3CC2048F
:100625000004C23C1F3CC2040000008080000000A2
:1006350000000080800000000000008080000000B5
:1006450000000080800000000000008080000000A5
:100655000000008080000000000000808000000095
:100665000000008080000000000000808000000085
:100675000000000000000000000000000000000075
:100685000000000000000000000000000000000065
:100695000000000000000000000000000000000055
:1006A5000000F8F8FCFFFFFCF8F80000000000006F
:1006B5000000000000000000000000000000000035
:1006C50000000000000000000000E0F0B8B8B8B875
:1006D500F0E0000000000000000000000000000045
:1006E5000000000000000000000000000000000005
:1006F500000000000000000000000000000000E015
:10070500E0E0E0E0E0E0E0000000000000000000C4
:1007150000000000000000000000E0F0B8BCB8B820
:10072500F0E00000000000000000000000000000F4
:10073500000000000000000000000000F8E0F8E004
:10074500F8E0F8E0000000000000000000000000F4
:100755000000000000000000988888FCFC8888984C
:100765000000000000000000000000000000000084
:100775000000000000000000000000000000000074
:100785000000000000000000000000000000000064
:100795000000F8F8FCFFFFFCF8F80000081C362202
:1007A5002020380C040E1A1210180808CFC9F9C9F0
:1007B500CFC9F9C9CFC9F9C9CFC9F9C9FFFF55AA29
:1007C50055AA55AA55AA55AA55AA55AA55AA55AA2C
:1007D50055AA55AA55AA55AA55AA55AA55AA55AA1C
:1007E50055AA55AA55AA55AA55AA55AA55AA55AA0C
:0A07F50055AA55AA55AA55FFFF406A
:00000001FF
