:0300000002000AF1
:10000A00111D117E11107D0A11AFDDFA22002200A6
:10001A0022002275B001740C111BD2B4740211179C
:10002A0078E2116A116F78EE116A116F78A4116A79
:10003A00116F78A9116A116F78C0116A116F78A1CE
:10004A00116A116F78AF116A116F2289B0889074A2
:10005A00281119C2B074A01119D2B0740A11192248
:10006A0079091155227901115522790D11552279F3
:10007A00051155227C0474049CFAEA44B8F8116A02
:10008A007813116A78007B3DEB1174DBFBEA44B804
:10009A00F8116F7800116F78007B3DEB243D1179E0
:1000AA00DBF9DCD222117E7A00EA44B8F8116A78C8
:0D00BA0013116A78997B3DEB1174DBFB227A
:00000001FF
