:0400000002003D328B
:01000B0032C2
:0100130032BA
:01001B0032B2
:0100230032AA
:1000300075880075890075D00075A80022C2B7C206
:10004000B511301185114711E480FE22C2D3C2D40C
:1000500022D2D3C2D422C2D3D2D422D2D3D2D42257
:10006000FF7E92000000000000DEF8DFF422FF7E39
:1000700001DEFEDFFA22FF7E02000000DEFBDFF77A
:10008000227590002275B001740C1176D2B47402FE
:10009000116078E211D011D578EE11D011D578A485
:1000A00011D011D578A911D011D578C011D011D5A2
:1000B00078A111D011D578AF11D011D51181228935
:1000C000B088907428116EC2B074A0116ED2B022A4
:1000D000791D11BF22791511BF22793D11BF2279F7
:1000E0003511BF227C0474049CFAEA44B8F811D09C
:1000F000781311D078007B3D11DADBFCEA44B8F8C4
:1001000011D5780011D578007B3D11DFDBFCDCD602
:100110001181227A00EA44B8F811D0781311D090F6
:1001200007007B033129DBFC227A08740093F81165
:10013000DAA3DAF7227A08740093F811DFA3DAF76A
:01014000229C
:1007000000FFFF0303FFFF0000FFFF700EFFFF006D
:1007100000FFFFC3C3E7E70000CFEF1D1DFFFF0091
:010720004098
:00000001FF
