:0400000002003F3289
:01000B0032C2
:0100130032BA
:01001B0032B2
:0100230032AA
:1000320075880075890075D00075A80022113211EB
:100042006211C7114711F87D0ADDFA22FF7EE60030
:100052000000000000DEF8DFF422114E22114E22D1
:100062007414114E75B001740C115FD2B474021184
:100072004E78E211B311B878EE11B311B878A41129
:10008200B311B878A911B311B878C011B311B87807
:10009200A111B311B878AF11B311B82289B0889009
:1000A2007428115CC2B074A0115CD2B0740A115CE5
:1000B200227909119E227901119E22790D119E2227
:1000C2007905119E227C0474049CFAEA44B8F81162
:1000D200B3781311B378017B3DEB11BDDBFBEA442E
:1000E200B8F811B8780011B878017B3DEB243D11C6
:1000F200C2DBF9DCD22211C77A00EA44B8F811B3A4
:0E010200781311B378997B3DEB11BDDBFB2226
:00000001FF
