:040000000200603268
:01000B0032C2
:0100130032BA
:01001B0032B2
:0100230032AA
:1000300075F040A9F07755097766A9F0E9E709E777
:1000400022740A117F759000740A117F7590FF0267
:1000500000412275880075890075D00075A80022BE
:10006000C2B7C2B7115311C5312C116C7D0ADDFC2A
:1000700022FF7E92000000000000DEF8DFF422FF85
:100080007E01DEFEDFFA22FF7E02000000DEFBDFE3
:10009000F722D2B57F507EE6000000000000DEF8B7
:1000A000DFF4C2B522C2B522D2B774FFFF7EE600EC
:1000B0000000000000DEF8DFF4C2B7227590007582
:1000C000B00011A8227414117175B001740C11875D
:1000D000D2B47402117178E23118311D78EE311802
:1000E000311D78A43118311D78A93118311D78C01F
:1000F0003118311D78A13118311D78AF3118311DFB
:1001000011BC2289B088907428117FC2B074A011EC
:100110007FD2B0740A117F2279093103227901312B
:100120000322790D31032279053103227C04740402
:100130009CFAEA44B8F831187813311878037B3DFB
:10014000EB3122DBFBEA44B8F8311D7800311D7831
:10015000037B3DEB243D3127DBF9DCD211BC22319E
:100160002C7A00EA44B8F831187813311878997B62
:080170003DEB3122DBFB2240D4
:00000001FF
