:0400000002004E327A
:01000B0032C2
:0100130032BA
:01001B0032B2
:0100230032AA
:1000300075F040A9F07755097766A9F0E9E709E777
:100040002275880075890075D00075A80022C2B796
:10005000C2B5114111B01158310F31447D0ADDFC98
:1000600022FF7E047AFA7B92000000000000DBF899
:10007000DAF4DEF0DFEC22FF7E92000000000000E8
:10008000DEF8DFF422FF7E01DEFEDFFA22FF7E02D1
:10009000000000DEFBDFF72275900022C2D3C2D43D
:1000A00022D2D3C2D422C2D3D2D422D2D3D2D42207
:1000B00075B001740C118DD2B47402117778E2110D
:1000C000FB310078EE11FB310078A411FB31007890
:1000D000A911FB310078C011FB310078A111FB316F
:1000E0000078AF11FB310011982289B088907428F4
:1000F0001185C2B074A01185D2B022791911EA22FB
:10010000791111EA22791D11EA22791511EA227872
:10011000E211FB31007C0474049CFAEA44B8F81143
:10012000FB781311FB78557B3D3105DBFCEA44B8C5
:10013000F83100A800310078AA7B3D310ADBFCDCF5
:10014000D611982278E211FB31007A00EA44B8F81F
:1001500011FB781311FB9007007B033160DBFC225D
:100160007A08740093F83105A3DAF7227A0874004C
:0801700093F8310AA3DAF7222B
:1007000000FFFF0303FFFF0000FFFF700EFFFF006D
:1007100000FFFFC3C3E7E70000CFEF1D1DFFFF0091
:010720004098
:00000001FF
