:040000000200983230
:01000B0032C2
:0100130032BA
:01001B0032B2
:0100230032AA
:1000300075F040A9F07755097766A9F0E9E709E777
:1000400022740111A975903F740111A9759006746D
:100050000111A975905B740111A975904F7401117C
:10006000A9759066740111A975906D740111A97537
:10007000907D740111A9759007740111A975907F85
:10008000740111A975906702004122758800758975
:100090000075D00075A80022C2B7C2B7118B31130A
:1000A000317A11A47D0ADDFC22FF7E047AFA7B926C
:1000B000000000000000DBF8DAF4DEF0DFEC22FFE5
:1000C0007E92000000000000DEF8DFF422FF7E01D7
:1000D000DEFEDFFA22FF7E02000000DEFBDFF722F9
:1000E000D2B57F507EE6000000000000DEF8DFF4AD
:1000F000C2B522C2B522D2B774FFFF7EE60000006F
:10010000000000DEF8DFF4C2B72275900075B00081
:1001100011F622741411BF75B001740C11D5D2B44C
:10012000740211BF78E23166316B78EE3166316B63
:1001300078A43166316B78A93166316B78C031664D
:10014000316B78A13166316B78AF3166316B310A32
:100150002289B08890742811CDC2B074A011CDD27C
:10016000B0740A11CD22790931512279013151221D
:10017000790D31512279053151227C0474049CFAA5
:10018000EA44B8F831667813316678037B3DEB3189
:1001900070DBFBEA44B8F8316B7800316B78037B95
:1001A0003DEB243D3175DBF9DCD2310A22317A7A1C
:1001B00000EA44B8F831667813316678997B3DEBF4
:0601C0003170DBFB224060
:00000001FF
