:040000000200603268
:01000B0032C2
:0100130032BA
:01001B0032B2
:0100230032AA
:1000300075F040A9F07755097766A9F0E9E709E777
:100040002274501171759000745011717590FF02F7
:1000500000412275880075890075D00075A80022BE
:10006000C2B7C2B7115311CC3133116C7D0ADDFC1C
:1000700022FF7EE6000000000000DEF8DFF411AC95
:1000800022FF7E02000000DEFBDFF711AC22FF7EC4
:100090000100DEFDDFF911AC22D2B57F507EE60013
:1000A0000000000000DEF8DFF4C2B522C2B522D2A3
:1000B000B774FFFF7EE6000000000000DEF8DFF40A
:1000C000C2B72275900075B00011AF22741411717F
:1000D00075B001740C118ED2B47402117178E231D2
:1000E0001F312478EE311F312478A4311F31247858
:1000F000A9311F312478C0311F312478A1311F313B
:100100002478AF311F312411C32289B0889074281C
:100110001181C2B074A01181D2B0740A1181227908
:1001200009310A227901310A22790D310A22790531
:10013000310A227C0474049CFAEA44B8F8311F782E
:1001400013311F78037B3DEB3129DBFBEA44B8F820
:1001500031247800312478037B3DEB243D312EDBC4
:10016000F9DCD211C32231337A00EA44B8F8311FE6
:0F0170007813311F78997B3DEB3129DBFB22405F
:00000001FF
